{
  "contractName": "JobList",
  "abi": [
    {
      "anonymous": false,
      "inputs": [
        {
          "indexed": false,
          "name": "title",
          "type": "string"
        },
        {
          "indexed": false,
          "name": "desc",
          "type": "string"
        },
        {
          "indexed": false,
          "name": "salary",
          "type": "uint256"
        }
      ],
      "name": "LogAddJob",
      "type": "event"
    },
    {
      "anonymous": false,
      "inputs": [
        {
          "indexed": false,
          "name": "_index",
          "type": "uint256"
        },
        {
          "indexed": true,
          "name": "creatorAddress",
          "type": "address"
        },
        {
          "indexed": true,
          "name": "workerAddress",
          "type": "address"
        },
        {
          "indexed": false,
          "name": "salary",
          "type": "uint256"
        }
      ],
      "name": "LogPayFreelancer",
      "type": "event"
    },
    {
      "anonymous": false,
      "inputs": [
        {
          "indexed": false,
          "name": "index",
          "type": "uint256"
        },
        {
          "indexed": true,
          "name": "workerAddress",
          "type": "address"
        }
      ],
      "name": "LogFreelancerDoneJob",
      "type": "event"
    },
    {
      "anonymous": false,
      "inputs": [
        {
          "indexed": false,
          "name": "index",
          "type": "uint256"
        },
        {
          "indexed": true,
          "name": "workerAddress",
          "type": "address"
        }
      ],
      "name": "LogFreelancerTakeJob",
      "type": "event"
    },
    {
      "constant": false,
      "inputs": [
        {
          "name": "_jobTitle",
          "type": "string"
        },
        {
          "name": "_jobDescription",
          "type": "string"
        },
        {
          "name": "_jobSalary",
          "type": "uint256"
        }
      ],
      "name": "addJob",
      "outputs": [],
      "payable": false,
      "stateMutability": "nonpayable",
      "type": "function"
    },
    {
      "constant": true,
      "inputs": [],
      "name": "getTotalJobNumber",
      "outputs": [
        {
          "name": "",
          "type": "uint256"
        }
      ],
      "payable": false,
      "stateMutability": "view",
      "type": "function"
    },
    {
      "constant": true,
      "inputs": [
        {
          "name": "_index",
          "type": "uint256"
        }
      ],
      "name": "getJobByIndex",
      "outputs": [
        {
          "name": "",
          "type": "address"
        },
        {
          "name": "",
          "type": "uint256"
        },
        {
          "name": "",
          "type": "string"
        },
        {
          "name": "",
          "type": "string"
        },
        {
          "name": "",
          "type": "bool"
        },
        {
          "name": "",
          "type": "bool"
        },
        {
          "name": "",
          "type": "bool"
        }
      ],
      "payable": false,
      "stateMutability": "view",
      "type": "function"
    },
    {
      "constant": false,
      "inputs": [
        {
          "name": "_index",
          "type": "uint256"
        }
      ],
      "name": "doThisJob",
      "outputs": [],
      "payable": false,
      "stateMutability": "nonpayable",
      "type": "function"
    },
    {
      "constant": false,
      "inputs": [
        {
          "name": "_index",
          "type": "uint256"
        }
      ],
      "name": "jobDone",
      "outputs": [],
      "payable": false,
      "stateMutability": "nonpayable",
      "type": "function"
    },
    {
      "constant": false,
      "inputs": [
        {
          "name": "_index",
          "type": "uint256"
        }
      ],
      "name": "cancelJob",
      "outputs": [],
      "payable": false,
      "stateMutability": "nonpayable",
      "type": "function"
    },
    {
      "constant": false,
      "inputs": [
        {
          "name": "_index",
          "type": "uint256"
        }
      ],
      "name": "payTheFreelancer",
      "outputs": [],
      "payable": true,
      "stateMutability": "payable",
      "type": "function"
    }
  ],
  "bytecode": "0x608060405260006001556000600255600060035534801561001f57600080fd5b506111fc8061002f6000396000f300608060405260043610610083576000357c0100000000000000000000000000000000000000000000000000000000900463ffffffff1680631dffa3dc1461008857806381ba30da146100b557806381cdcd381461022257806390f9d7601461024f578063a8c00b281461027a578063c293bd2e1461029a578063fa6b104a146102c7575b600080fd5b34801561009457600080fd5b506100b360048036038101908080359060200190929190505050610380565b005b3480156100c157600080fd5b506100e060048036038101908080359060200190929190505050610455565b604051808873ffffffffffffffffffffffffffffffffffffffff1673ffffffffffffffffffffffffffffffffffffffff1681526020018781526020018060200180602001861515151581526020018515151515815260200184151515158152602001838103835288818151815260200191508051906020019080838360005b8381101561017a57808201518184015260208101905061015f565b50505050905090810190601f1680156101a75780820380516001836020036101000a031916815260200191505b50838103825287818151815260200191508051906020019080838360005b838110156101e05780820151818401526020810190506101c5565b50505050905090810190601f16801561020d5780820380516001836020036101000a031916815260200191505b50995050505050505050505060405180910390f35b34801561022e57600080fd5b5061024d60048036038101908080359060200190929190505050610697565b005b34801561025b57600080fd5b506102646107ec565b6040518082815260200191505060405180910390f35b610298600480360381019080803590602001909291905050506107f6565b005b3480156102a657600080fd5b506102c560048036038101908080359060200190929190505050610a91565b005b3480156102d357600080fd5b5061037e600480360381019080803590602001908201803590602001908080601f0160208091040260200160405190810160405280939291908181526020018383808284378201915050505050509192919290803590602001908201803590602001908080601f016020809104026020016040519081016040528093929190818152602001838380828437820191505050505050919291929080359060200190929190505050610be4565b005b3373ffffffffffffffffffffffffffffffffffffffff166004600083815260200190815260200160002060040160009054906101000a900473ffffffffffffffffffffffffffffffffffffffff1673ffffffffffffffffffffffffffffffffffffffff161480156104185750600015156004600083815260200190815260200160002060030160029054906101000a900460ff161515145b151561042357600080fd5b60006004600083815260200190815260200160002060030160016101000a81548160ff02191690831515021790555050565b60008060608060008060006004600089815260200190815260200160002060030160039054906101000a900473ffffffffffffffffffffffffffffffffffffffff16600460008a815260200190815260200160002060000154600460008b8152602001908152602001600020600101600460008c8152602001908152602001600020600201600460008d815260200190815260200160002060030160019054906101000a900460ff16600460008e815260200190815260200160002060030160029054906101000a900460ff16600460008f815260200190815260200160002060030160009054906101000a900460ff16848054600181600116156101000203166002900480601f0160208091040260200160405190810160405280929190818152602001828054600181600116156101000203166002900480156105db5780601f106105b0576101008083540402835291602001916105db565b820191906000526020600020905b8154815290600101906020018083116105be57829003601f168201915b50505050509450838054600181600116156101000203166002900480601f0160208091040260200160405190810160405280929190818152602001828054600181600116156101000203166002900480156106775780601f1061064c57610100808354040283529160200191610677565b820191906000526020600020905b81548152906001019060200180831161065a57829003601f168201915b505050505093509650965096509650965096509650919395979092949650565b3373ffffffffffffffffffffffffffffffffffffffff166004600083815260200190815260200160002060030160039054906101000a900473ffffffffffffffffffffffffffffffffffffffff1673ffffffffffffffffffffffffffffffffffffffff1614151561070757600080fd5b60006004600083815260200190815260200160002060030160026101000a81548160ff02191690831515021790555060006004600083815260200190815260200160002060030160016101000a81548160ff0219169083151502179055506004600082815260200190815260200160002060030160039054906101000a900473ffffffffffffffffffffffffffffffffffffffff1673ffffffffffffffffffffffffffffffffffffffff167fa60437e6b1de0811b2dfbbcc2e6c8f47af43c8e502d89c5ae6d496fccfe0f716826040518082815260200191505060405180910390a250565b6000600154905090565b60003373ffffffffffffffffffffffffffffffffffffffff166004600084815260200190815260200160002060040160009054906101000a900473ffffffffffffffffffffffffffffffffffffffff1673ffffffffffffffffffffffffffffffffffffffff1614151561086857600080fd5b600015156004600084815260200190815260200160002060030160029054906101000a900460ff1615151480156108c65750600015156004600084815260200190815260200160002060030160019054906101000a900460ff161515145b15156108d157600080fd5b6004600083815260200190815260200160002060030160039054906101000a900473ffffffffffffffffffffffffffffffffffffffff169050670de0b6b3a7640000340260046000848152602001908152602001600020600001541115151561093957600080fd5b6004600083815260200190815260200160002060030160039054906101000a900473ffffffffffffffffffffffffffffffffffffffff1673ffffffffffffffffffffffffffffffffffffffff166108fc349081150290604051600060405180830381858888f193505050505060016004600084815260200190815260200160002060030160006101000a81548160ff0219169083151502179055508073ffffffffffffffffffffffffffffffffffffffff166004600084815260200190815260200160002060040160009054906101000a900473ffffffffffffffffffffffffffffffffffffffff1673ffffffffffffffffffffffffffffffffffffffff167fd884996248f24e2da6a13867b1bf474dbf2c22153239b4cf2c7dece6f5681207846004600087815260200190815260200160002060000154604051808381526020018281526020019250505060405180910390a35050565b600115156004600083815260200190815260200160002060030160019054906101000a900460ff161515141515610ac757600080fd5b336004600083815260200190815260200160002060030160036101000a81548173ffffffffffffffffffffffffffffffffffffffff021916908373ffffffffffffffffffffffffffffffffffffffff16021790555060016004600083815260200190815260200160002060030160026101000a81548160ff0219169083151502179055506003600081548092919060010191905055506004600082815260200190815260200160002060030160039054906101000a900473ffffffffffffffffffffffffffffffffffffffff1673ffffffffffffffffffffffffffffffffffffffff167f6d873f64df16f1cfe5766faa5129465b54f749ff2316cdc69fb82a40473e4241826040518082815260200191505060405180910390a250565b60008082111515610bf457600080fd5b60008451111515610c0457600080fd5b60008451111515610c1457600080fd5b600460006001548152602001908152602001600020905060008160030160036101000a81548173ffffffffffffffffffffffffffffffffffffffff021916908373ffffffffffffffffffffffffffffffffffffffff160217905550678ac7230489e800008202816000016000828254019250508190555083816001019080519060200190610ca39291906110a4565b5082816002019080519060200190610cbc9291906110a4565b5060018160030160016101000a81548160ff02191690831515021790555060008160030160026101000a81548160ff021916908315150217905550338160040160006101000a81548173ffffffffffffffffffffffffffffffffffffffff021916908373ffffffffffffffffffffffffffffffffffffffff16021790555060008160030160006101000a81548160ff021916908315150217905550600081908060018154018082558091505090600182039060005260206000209060050201600090919290919091506000820154816000015560018201816001019080546001816001161561010002031660029004610db6929190611124565b5060028201816002019080546001816001161561010002031660029004610dde929190611124565b506003820160009054906101000a900460ff168160030160006101000a81548160ff0219169083151502179055506003820160019054906101000a900460ff168160030160016101000a81548160ff0219169083151502179055506003820160029054906101000a900460ff168160030160026101000a81548160ff0219169083151502179055506003820160039054906101000a900473ffffffffffffffffffffffffffffffffffffffff168160030160036101000a81548173ffffffffffffffffffffffffffffffffffffffff021916908373ffffffffffffffffffffffffffffffffffffffff1602179055506004820160009054906101000a900473ffffffffffffffffffffffffffffffffffffffff168160040160006101000a81548173ffffffffffffffffffffffffffffffffffffffff021916908373ffffffffffffffffffffffffffffffffffffffff1602179055505050506001600081548092919060010191905055507fd4626e79fc144696cd606b50e5288a89e27b1b3daa5b233b311baecd3e1ea6508160010182600201836000015460405180806020018060200184815260200183810383528681815460018160011615610100020316600290048152602001915080546001816001161561010002031660029004801561100a5780601f10610fdf5761010080835404028352916020019161100a565b820191906000526020600020905b815481529060010190602001808311610fed57829003601f168201915b505083810382528581815460018160011615610100020316600290048152602001915080546001816001161561010002031660029004801561108d5780601f106110625761010080835404028352916020019161108d565b820191906000526020600020905b81548152906001019060200180831161107057829003601f168201915b50509550505050505060405180910390a150505050565b828054600181600116156101000203166002900490600052602060002090601f016020900481019282601f106110e557805160ff1916838001178555611113565b82800160010185558215611113579182015b828111156111125782518255916020019190600101906110f7565b5b50905061112091906111ab565b5090565b828054600181600116156101000203166002900490600052602060002090601f016020900481019282601f1061115d578054855561119a565b8280016001018555821561119a57600052602060002091601f016020900482015b8281111561119957825482559160010191906001019061117e565b5b5090506111a791906111ab565b5090565b6111cd91905b808211156111c95760008160009055506001016111b1565b5090565b905600a165627a7a72305820a07031a5069ebb7fab19461db00eaafd63013f03e04c388a56f65fdf723100cb0029",
  "source": "contract JobList {\n\n  struct Job {\n    uint256 jobSalary;\n    string jobTitle;\n    string jobDescription;\n    bool salaryDelivred;\n    bool active;\n    bool inProgress;\n    address workerAddress;\n    address creatorAddress;\n\n  }\n\n  Job[] jobArray;\n\n  uint jobCount = 0;\n  uint finishedJobCount = 0;\n  uint workInprogressCount = 0;\n\n  mapping (uint => Job) jobs;\n  mapping (address => uint) myWorkInprogress;\n\n  event LogAddJob(string title, string desc, uint salary);\n  event LogPayFreelancer(uint _index, address indexed creatorAddress, address indexed workerAddress, uint salary);\n  event LogFreelancerDoneJob(uint index, address indexed workerAddress);\n  event LogFreelancerTakeJob(uint index, address indexed workerAddress);\n\n  function addJob(\n    string _jobTitle,\n    string _jobDescription,\n    uint256 _jobSalary\n    ) public {\n        require(_jobSalary > 0);\n        require(bytes(_jobTitle).length > 0);\n        require(bytes(_jobTitle).length > 0);\n\n      var _job = jobs[jobCount];\n\n      _job.workerAddress = 0x0;\n      _job.jobSalary += (_jobSalary * 10e18);\n      _job.jobTitle = _jobTitle;\n      _job.jobDescription = _jobDescription;\n      _job.active = true;\n      _job.inProgress = false;\n      _job.creatorAddress = msg.sender;\n      _job.salaryDelivred = false;\n\n      jobArray.push(_job);\n      jobCount++;\n\n      emit LogAddJob(_job.jobTitle, _job.jobDescription, _job.jobSalary);\n  }\n\n  function getTotalJobNumber() view public returns(uint) {\n    return jobCount;\n  }\n\n  function getJobByIndex(uint _index) view public returns(address, uint, string, string, bool, bool, bool) {\n    return (\n      jobs[_index].workerAddress,\n      jobs[_index].jobSalary,\n      jobs[_index].jobTitle,\n      jobs[_index].jobDescription,\n      jobs[_index].active,\n      jobs[_index].inProgress,\n      jobs[_index].salaryDelivred\n      );\n  }\n\n  function doThisJob(uint _index) {\n    require(jobs[_index].active == true);\n    jobs[_index].workerAddress = msg.sender;\n    jobs[_index].inProgress = true;\n\n    workInprogressCount++;\n\n    emit LogFreelancerTakeJob(_index, jobs[_index].workerAddress);\n  }\n\n  function jobDone(uint _index) {\n    require(jobs[_index].workerAddress == msg.sender);\n\n    jobs[_index].inProgress = false;\n    jobs[_index].active = false;\n\n    emit LogFreelancerDoneJob(_index, jobs[_index].workerAddress);\n  }\n\n  function cancelJob(uint _index) {\n    require(jobs[_index].creatorAddress == msg.sender && jobs[_index].inProgress == false);\n\n    jobs[_index].active = false;\n  }\n\n  function payTheFreelancer(uint _index) public payable{\n    require(jobs[_index].creatorAddress == msg.sender);\n    require(jobs[_index].inProgress == false && jobs[_index].active == false);\n\n    address dest = jobs[_index].workerAddress;\n\n    require(jobs[_index].jobSalary <= msg.value * 1 ether);\n\n    jobs[_index].workerAddress.send(msg.value);\n    jobs[_index].salaryDelivred = true;\n\n    emit LogPayFreelancer(_index, jobs[_index].creatorAddress, dest, jobs[_index].jobSalary);\n\n  }\n}",
  "sourcePath": "C:\\Users\\herit\\Desktop\\DEMO\\alain-eth-starter\\contracts\\JobList.sol",
  "compiler": {
    "name": "solc",
    "version": "0.4.24+commit.e67f0147.Emscripten.clang"
  },
  "schemaVersion": "2.0.1",
  "updatedAt": "2018-08-16T15:06:37.284Z"
}