{
  "contractName": "Payable",
  "abi": [
    {
      "inputs": [
        {
          "name": "_creatorAddr",
          "type": "address"
        },
        {
          "name": "_freelancerAddr",
          "type": "address"
        },
        {
          "name": "_payFreelancer",
          "type": "address"
        }
      ],
      "payable": true,
      "stateMutability": "payable",
      "type": "constructor"
    },
    {
      "constant": false,
      "inputs": [],
      "name": "deposit",
      "outputs": [],
      "payable": true,
      "stateMutability": "payable",
      "type": "function"
    },
    {
      "constant": false,
      "inputs": [],
      "name": "pay",
      "outputs": [],
      "payable": true,
      "stateMutability": "payable",
      "type": "function"
    }
  ],
  "bytecode": "0x60806040526040516060806101dd833981018060405281019080805190602001909291908051906020019092919080519060200190929190505050826000806101000a81548173ffffffffffffffffffffffffffffffffffffffff021916908373ffffffffffffffffffffffffffffffffffffffff16021790555081600160006101000a81548173ffffffffffffffffffffffffffffffffffffffff021916908373ffffffffffffffffffffffffffffffffffffffff16021790555080905050505061010d806100d06000396000f3006080604052600436106049576000357c0100000000000000000000000000000000000000000000000000000000900463ffffffff1680631b9265b814604e578063d0e30db0146056575b600080fd5b6054605e565b005b605c60df565b005b600160009054906101000a900473ffffffffffffffffffffffffffffffffffffffff1673ffffffffffffffffffffffffffffffffffffffff166108fc3073ffffffffffffffffffffffffffffffffffffffff16319081150290604051600060405180830381858888f1935050505015801560dc573d6000803e3d6000fd5b50565b5600a165627a7a72305820af4afec24b862d85162db011eb358fecc077b51bfd6c2f1d287559eeef2f48120029",
  "source": "contract Payable {\n\n  address creatorAddr;\n  address freelancerAddr;\n  bool payFreelancer;\n  // address balance;\n\n  function Payable(\n    address  _creatorAddr,\n    address  _freelancerAddr,\n    address  _payFreelancer\n  ) payable {\n\n    creatorAddr = _creatorAddr;\n    freelancerAddr = _freelancerAddr;\n    _payFreelancer = _payFreelancer;\n    // _balance = msg.value;\n  }\n\n  // another way to add ether\n  function deposit() payable {\n\n  }\n\n  // For paying the freelancer\n  function pay() payable {\n    freelancerAddr.transfer(this.balance);\n  }\n}",
  "sourcePath": "C:\\Users\\herit\\Desktop\\DEMO\\alain-eth-starter\\contracts\\Escrow.sol",
  "compiler": {
    "name": "solc",
    "version": "0.4.24+commit.e67f0147.Emscripten.clang"
  },
  "schemaVersion": "2.0.1",
  "updatedAt": "2018-08-16T15:06:24.347Z"
}